03487V024343210CASTRO         LUGO           ISMARY         DANIELA        S000000000000000000000000000000002447010
03487V024818945MORALES        CANAGUACAN     MARIA          FERNANDA       S000000000000000000000000000000002447010
03487V025414042CARVAJAL       GARCIA         ANGEL          JESUS          S000000000000000000000000000000002447010
03487V022942313JIMENEZ        ACEVEDO        YOHERVI        ALEXANDER      S000000000000000000000000000000002447010
03487V026973857CORRALES       DIAZ           JUAN           CARLOS         S000000000000000000000000000000002447010
03487V009987074LEAL           CASTILLO       GENADIO        ANTONIO        S000000000000000000000000000000004061523
03487V026186305BOLIVAR        CARRIZO        RAFAEL         ANDRES         S000000000000000000000000000000002447010
03487V021260223RIVAS          ORTA           YOSELIN        YAMILET        S000000000000000000000000000000002447010
03487V009879303RUIZ           CARVAJAL       JOSE           GREGORIO       S000000000000000000000000000000004127773
03487V026492538ZAMBRANO       GARCIA         KILDER         ANDRES         S000000000000000000000000000000002447010
03487V024281026PAREDES        ESCALONA       RONALD         EDUAR          S000000000000000000000000000000002447010
03487V022188829RIVERO         MATHEUS        WOLFAN         EDUARDO        S000000000000000000000000000000002447010
03487V023882415CAPITILLO      BALLESTERO     JHEIXON        JESUS          S000000000000000000000000000000002447010
03487V025286970BENITEZ        ALEMAN         JESSULYS       GILVANIS       S000000000000000000000000000000002447010
03487V025296526BOHORQUEZ      ESPINA         ANDRES         EDUARDO        S000000000000000000000000000000002447010
03487V022502963MARTINEZ       PEREZ          BENITO         JUNIOR         S000000000000000000000000000000002447010
03487V025742954GUEVARA        BEJARANO       YBRAHIM        ENRIQUE        S000000000000000000000000000000002447010
03487V025032410ROJAS          MELENDEZ       MOISES         DAVID          S000000000000000000000000000000002447010
03487V024319392PALACIO        DURAN          ANDERSON       JOSE           S000000000000000000000000000000002447010
03487V026002777CASTELLANOS    YEPEZ          LUISANNY       CAROLINA       S000000000000000000000000000000002447010
03487V009284477CONQUISTA      LIRA           JULIO          CESAR          S000000000000000000000000000000004340965
03487V020665430MENDOZA        MILLAN         JESUS          BERNARDO       S000000000000000000000000000000002447010
03487V021237023MARTINEZ       HERNANDEZ      MARIA          MILAGROS       S000000000000000000000000000000002447010
03487V009714310HOIRA          OSPINO         RAFAEL                        S000000000000000000000000000000004054500
03487V026009424GONZALEZ       HENRIQUEZ      HENRRY         ALEJANDRO      S000000000000000000000000000000002447010
03487V026082505RODRIGUEZ      RODRIGUEZ      JOSE           GREGORIO       S000000000000000000000000000000002447010
03487V019599898COLMENARES     MEDINA         ENDER          JESUS          S000000000000000000000000000000002447010
03487V009803421ZAVALA         ROMERO         JUAN           CARLOS         S000000000000000000000000000000004194023
03487V024110537PEREZ          INDRIAGO       JHONATAN       ENRIQUE        S000000000000000000000000000000002447010
03487V026660180MORENO         SIFONTES       ENGERBETH      DAVID          S000000000000000000000000000000002447010
03487V020045474ALASTRE        BERTHA         LISSETTE                      S000000000000000000000000000000002447010
03487V026564329ABOUHARB       MEJIAS         FRANLLIGI      AMANDA         S000000000000000000000000000000002447010
03487V024159423SIBRIAM        CASTILLO       EDUARDO        JOSE           S000000000000000000000000000000002447010
03487V025708200TORREALBA      GARRIDO        YONETSI        SARAHI         S000000000000000000000000000000002447010
03487V024149461REY            PAREDES        BRAYAN         JOSE           S000000000000000000000000000000002447010
03487V024698104ANCHETA        FERNANDEZ      MARIA          JOSE           S000000000000000000000000000000002447010
03487V026412133LEON           FREYNELL       XAVIER                        S000000000000000000000000000000002447010
03487V024829274LUGO           CANACHE        SONIBEL        OSCARINA       S000000000000000000000000000000002447010
03487V025932653SUAREZ         RODRIGUEZ      ANGIE          GABRIELA       S000000000000000000000000000000002447010
03487V025132876OCCHIPINTI     GARCIA         ALESSANDRO     JESUS          S000000000000000000000000000000002868360
03487V025725475PEREZ          MUNOZ          LIAMAISIS      JESUS          S000000000000000000000000000000002447010
03487V024476673BANDRES        RODRIGUEZ      JUAN           JOSE           S000000000000000000000000000000002447010
03487V021055629SANTANA        MENDOZA        KELVIN         EDUARDO        S000000000000000000000000000000002447010
03487V026044046CAMACHO        ROBERTH        KENDAL                        S000000000000000000000000000000002447010
03487V025486613MORILLO        MENDOZA        DUVERQUIS      PAHOLA         S000000000000000000000000000000002447010
03487V020624482FUENTES        ACOSTA         LEYNISKERT     MARFREYKERT    S000000000000000000000000000000002542410
03487V010082337AMAYA          URRIBARRI      RANDOL         JOSE           S000000000000000000000000000000004194023
03487V006437064GARCIA         MEDINA         JOSE           RAMON          S000000000000000000000000000000004274715
03487V025203822YEPEZ          CASTILLO       LUIS           ANTONIO        S000000000000000000000000000000002447010
03487V022294273PEREZ          HERNANDEZ      DOUGLEDYS      DEL            S000000000000000000000000000000002542410
03487V016154377PEREZ                         JHOAN                         S000000000000000000000000000000002699926
03487V019644596PERDOMO        AGUILAR        JOSE           DANIEL         S000000000000000000000000000000002542410
03487V007566230AREVALO        LEAL           JOSE           RAFAEL         S000000000000000000000000000000004340965
03487V025459432SUAREZ         BRAQUE         DARWIN         JOSE           S000000000000000000000000000000002447010
03487V025900717MEDINA         PINO           WILMER         EDUARDO        S000000000000000000000000000000002447010
03487V025880226GUEDEZ         MARTINEZ       FREY           EDUARDO        S000000000000000000000000000000002447010
03487V026285520ROA            RONDON         GERMAN         ELIEZER        S000000000000000000000000000000002447010
03487V026543312HERNANDEZ      VALLEJO        LUISANGEL      STEVENS        S000000000000000000000000000000002447010
03487V008653649MADRONERO      GUALDRON       GABRIEL        JO             S000000000000000000000000000000004194023
03487V022041379MEZA           NAGUANAGUA     OSCAR          ELOY           S000000000000000000000000000000002447010
03487V025222729PERDOMO        CASTRO         VICTOR         DAVID          S000000000000000000000000000000002447010
03487V025242917GIL            MAYORGA        ROSANGELA      CAROLINA       S000000000000000000000000000000002447010
03487V026343037BLANCO         HIDALGO        KENDERWIN      JOSE           S000000000000000000000000000000002447010
03487V024815613RAMIREZ        VELASQUEZ      MACKENZY       ANTHONY        S000000000000000000000000000000002447010
03487V022586429SOLORZANO      GARRIDO        BRIAN          ARTURO         S000000000000000000000000000000002447010
03487V022608767SIERRALTA      NAVARRO        PEDRO          JESUS          S000000000000000000000000000000002447010
03487V020961896SOLORZANO      MONTILLA       MIGUEL         ANGEL          S000000000000000000000000000000002447010
03487V025107160GUTIERREZ      GONZALEZ       ANDRIS         ADRIAN         S000000000000000000000000000000002447010
03487V027122146PINTO          BARRAGAN       ALONDRA        YARAMI         S000000000000000000000000000000002447010
03487V024784987ROSAS          ROZO           ANYELI         YUGREILI       S000000000000000000000000000000002447010
03487V025579757ALONZO         COELLO         JESUS          ANTONIO        S000000000000000000000000000000002447010
03487V024802789PAEZ           AREVALO        KERVIN         JESUS          S000000000000000000000000000000002447010
03487V025706853MONTIEL        PEREZ          LEONARDO       JESUS          S000000000000000000000000000000002447010
03487V024298421PICHARDO       GALINDO        DIEGO          LAUREANO       S000000000000000000000000000000002447010
03487V025852191GARCIA         LUNA           JUAN           DAVID          S000000000000000000000000000000002447010
03487V005919905CASTRO         FERNANDEZ      JOSE           RAMON          S000000000000000000000000000000004274715
03487V026012079PENA           DELGADO        JAVIER         ENRIQUE        S000000000000000000000000000000002447010
03487V020949679VILLANUEVA     NAVAS          GERARDO        ANTONIO        S000000000000000000000000000000002447010
03487V026057859GARCIA         MARTINEZ       DANIEL         ANTONIO        S000000000000000000000000000000002447010
03487V026425954BRICENO        ESPINOZA       SAMUEL         DAVID          S000000000000000000000000000000002447010
03487V025469967GONZALEZ       ARIAS          LUZ            GABRIELA       S000000000000000000000000000000002447010
03487V023665792RUIZ           PADILLA        RAUDETH        JECKSON        S000000000000000000000000000000002447010
03487V024112703CASTILLO       BASTOS         ALEXIS         DANIEL         S000000000000000000000000000000002447010
03487V025798788VERGARA        GOMEZ          MAURO                         S000000000000000000000000000000002447010
03487V022942403RIOS           COLON          HELISAUL                      S000000000000000000000000000000002447010
03487V025203053TARAZONA       VALDIVIESO     LUIS           ALBERTO        S000000000000000000000000000000002447010
03487V006899519TOVAR          OROPEZA        MIGUEL         ANGEL          S000000000000000000000000000000004194023
03487V026900138SAMBRANO       ANAYA          BRAYAN         GABRIEL        S000000000000000000000000000000002447010
03487V021133955MORENO         RODRIGUEZ      AHISQUEL       MARIA          S000000000000000000000000000000002447010
03487V022572585ZAMBRANO       YANCE          LOURDES        BEATRIZ        S000000000000000000000000000000002447010
03487V025001849BRAVO          MARIA          ALEJANDRA                     S000000000000000000000000000000002235540
03487V025393853GALLEGO        RESPLANDOR     ELVIS          LEON           S000000000000000000000000000000002447010
03487V025863572SOTO           SOTO           MARCOS         ANTONIO        S000000000000000000000000000000002447010
03487V026261708MENDOZA        MORENO         ORIANA         JORMARI        S000000000000000000000000000000002447010
03487V024894423PEROZO         CAMACARO       ROBERT         DANIEL         S000000000000000000000000000000002447010
03487V025601773CORREDOR       CHAVEZ         JOHN           KEYBER         S000000000000000000000000000000002447010
03487V023642535MURRAY         ALVAREZ        DANNY          BELKEL         S000000000000000000000000000000002542410
03487V023418541GOMEZ          COLMENARES     JUAN           CARLOS         S000000000000000000000000000000002447010
03487V025203100MORALES        LOPEZ          JEAN           MICHELL        S000000000000000000000000000000002447010
03487V025880920BARROS         ALCALA         ANGIE          FERNANDA       S000000000000000000000000000000002447010
03487V027061378ALVAREZ        BOLIVAR        EDUARD         AMADOR         S000000000000000000000000000000002447010
03487V025927591CORDERO        TRUJEL         WILFREDO       JESUS          S000000000000000000000000000000002447010
03487V025111373RODRIGUEZ      LUGO           MIGUEL         EDUARDO        S000000000000000000000000000000002447010
03487V026192433GAMARRA        HENRIQUEZ      RYHTNEY        GUILLERMO      S000000000000000000000000000000002447010
03487V025677430PEREZ          MARQUEZ        MARIANGELA     COROMOTO       S000000000000000000000000000000002447010
03487V022909101DELGADO        MORALES        JOSE           MANUEL         S000000000000000000000000000000002447010
03487V007060273MENDOZA        ESTRANO        WILMER         ELIAS          S000000000000000000000000000000004179580
03487V022430185GONZALEZ       GARAY          ELTON          JULIANO        S000000000000000000000000000000002447010
03487V024913180DIAZ           ALVARADO       MOISES         JESUS          S000000000000000000000000000000002447010
03487V023647766GARCIA         JIMENEZ        LUIS           ADALBERTO      S000000000000000000000000000000002447010
03487V009233082MORA           ALVIAREZ       JAVIER         GERARDO        S000000000000000000000000000000004260273
03487V024955529CAMARGO        GASTELBONDO    DEIBER                        S000000000000000000000000000000002447010
03487V022422382GANANGO        PEREZ          JAVIER         ALEJANDRO      S000000000000000000000000000000002447010
03487V007413630AGUIRRE        PEREZ          JAVIER         PASTOR         S000000000000000000000000000000004194023
03487V019362137LUGO           ALBORNOZ       ZULEIN         ISELA          S000000000000000000000000000000002447010
03487V025915468LARA           GONZALEZ       WILFREDO       ALEJANDRO      S000000000000000000000000000000002447010
03487V024929219PENA           CARRENO        RICHARD        DAVID          S000000000000000000000000000000002447010
03487V025687458CORDERO        VELASQUEZ      ARGELVIS       RAUL           S000000000000000000000000000000002447010
03487V007683475STAMATERIS     HATZIHARALAMBOUSH                             S000000000000000000000000000000004142215
03487V007208588GENTILE        NIEVES         JIM            FERNANDO       S000000000000000000000000000000004127773
03487V025591098DIAZ           MATUTE         GREGORIA       MARGARITA      S000000000000000000000000000000002447010
03487V023443961FERRER         GONZALEZ       JESUS          ANGEL          S000000000000000000000000000000002447010
03487V027134426PARRA          MENDEZ         SINDY          MAYRETH        S000000000000000000000000000000002447010
03487V024883502YEPEZ          ESPINA         BRYAN          JOSE           S000000000000000000000000000000002447010
03487V025527354IBARRA         RIVERO         SUSE           DANIELA        S000000000000000000000000000000002447010
03487V024179884DIAZ           MARTINEZ       LIANIREL       DEL            S000000000000000000000000000000002447010
03487V019792208VERENZUELA     OVANEZ         HOWARD         HARVER         S000000000000000000000000000000002542410
03487V020615860SILVA          LEONETT        OZNER          AZZALI         S000000000000000000000000000000002447010
03487V026402444ESCALONA       PARRA          NELSON         DAVID          S000000000000000000000000000000002447010
03487V026131751SALAZAR        MUNDARAIN      RAIZA          CARELYS        S000000000000000000000000000000002447010
03487V023793075PINERO         MARTINEZ       RONALD         ALEJANDRO      S000000000000000000000000000000002447010
03487V025875442VILLARREAL     NORIEGA        GREGNORGE      DE             S000000000000000000000000000000002447010
03487V006519452MEJIA          APONTE         ANTONIO        ABEL           S000000000000000000000000000000004194023
03487V024898220BETANCOURT     BLANCO         JAYMELYNG      SARET          S000000000000000000000000000000002447010
03487V024643427MORENO         HERNANDEZ      MARUEL         JOSUE          S000000000000000000000000000000002447010
03487V022876127PARICA         ARRECHIDER     JULIO          CESAR          S000000000000000000000000000000002447010
03487V025347299CAMACARO       SILVA          YARINETH       YACCENY        S000000000000000000000000000000002447010
03487V026352024MONTILVA       VELASCO        ANA            MARIA          S000000000000000000000000000000002447010
03487V020988529MARQUEZ        CEDENO         GERMAN         ELIAS          S000000000000000000000000000000002447010
03487V023806945VILLAFRANCA    VILLAFRANCA    ANA            KARINA         S000000000000000000000000000000002235540
03487V021323414ROJAS          PATINO         MAXY           ALEXANDER      S000000000000000000000000000000002447010
03487V022843345RODRIGUEZ      CORTECIA       MIRIAN         ANABEL         S000000000000000000000000000000002447010
03487V026492906SANDOVAL       FERREIRA       JEFFERSON                     S000000000000000000000000000000002447010
03487V025130145MENDOZA        ROA            MIYERLIN       GABRIELA       S000000000000000000000000000000002447010
03487V022727189PORTALE        ZARRAGA        JOSE           ALBERTO        S000000000000000000000000000000002447010
03487V025779541MATAMOROS      PALACIOS       IVAN           IGNACIO        S000000000000000000000000000000002447010
03487V024289620PEREZ          DURAN          DAYANA         CAROLINA       S000000000000000000000000000000002447010
03487V024900031AYALA          CASTELLAR      CLEVYS         LEANDRA        S000000000000000000000000000000002447010
03487V025233158CONTRERAS      PENALOZA       GRACIELIS      KATHERIN       S000000000000000000000000000000002447010
03487V006814389VIZCARRONDO    PULGAR         ANDRES         ALF            S000000000000000000000000000000004208465
03487V023714505RANGEL         RAMOS          MICHELLE       DAHIAN         S000000000000000000000000000000002447010
03487V024900373URBINA         BENCOMO        DIKEMBE        ABDELNABY      S000000000000000000000000000000002447010
03487V023919009ROMERO         DIAZ           JOSE           DANIEL         S000000000000000000000000000000002447010
03487V024473504ROA            RODRIGUEZ      DANIMAR        SIKIU          S000000000000000000000000000000002447010
03487V025615247ROJAS          REYES          ELIEZER        JOSE           S000000000000000000000000000000002542410
03487V020561216ROQUE          MARIN          JORGE          FRANCISCO      S000000000000000000000000000000002447010
03487V024394401SILVA          ORTIZ          MINOSKA        GRADIMIR       S000000000000000000000000000000002447010
03487V025751820GOMEZ          MARCANO        JOSUE          DAVID          S000000000000000000000000000000002447010
03487V021666446ROMERO         RUIZ           ALEX           JESUS          S000000000000000000000000000000002447010
03487V025257152ARCILA         MENDEZ         SANTIAGO       ANDRES         S000000000000000000000000000000002447010
03487V026384421PULBE          MACHIZ         ABRAHAM        ERNESTO        S000000000000000000000000000000002447010
03487V008038153RUJANO         QUINTERO       GERARDO        ELI            S000000000000000000000000000000004194023
03487V025779606CAMBERO        SEQUERA        HERBERT        ALFONZO        S000000000000000000000000000000002447010
03487V024924232PERDOMO        INFANTE        LINDOMAR       JOSE           S000000000000000000000000000000002447010
03487V027925879PAEZ           OLIVEROS       LEANDRO        LUIS           S000000000000000000000000000000002447010
03487V025744011QUINTANA       GUZMAN         YANGEL         DE             S000000000000000000000000000000002447010
03487V024306548YRAUSQUIN      PEREIRA        ROXANA         NEYCAR         S000000000000000000000000000000002447010
03487V025971933VARGAS         MATUTE         WILMARYS       ANDREINA       S000000000000000000000000000000002447010
03487V025626839CARMONA        ZAMBRANO       GERARDO        ENRIQUE        S000000000000000000000000000000002447010
03487V022610854BAEZ           RUIZ           LEIDYMAR       YETZABETH      S000000000000000000000000000000002447010
03487V025216564BELLO          LEIDENZ        THAYRON        OBRAYAN        S000000000000000000000000000000002447010
03487V026472283TORRES         LEON           ROSILY         LUZ            S000000000000000000000000000000002447010
03487V025574509CARMONA        MAYORA         ORAINEL        OSWALDO        S000000000000000000000000000000002447010
03487V025927673FERNANDEZ      SANCHEZ        LOREANNYS      KISBELLA       S000000000000000000000000000000002447010
03487V026250644VENOSA         MONEDERO       MICHELANGELO                  S000000000000000000000000000000002447010
03487V023689273PALACIOS       BATISTA        JULIO          MOISES         S000000000000000000000000000000002447010
03487V025784891VARGAS         VARGAS         MARIA          ALEJANDRA      S000000000000000000000000000000002447010
03487V025545462RASTELLI       MACIAS         ALFONSO        ALEXANDER      S000000000000000000000000000000002447010
03487V021623710OMANA          BARRIOS        LEISY          SARAY          S000000000000000000000000000000002447010
03487V023627187ALVAREZ        MUJICA         MOISES         ALEXANDER      S000000000000000000000000000000002447010
03487V024601140QUINTANA       OCHOA          PEDRO          ARQUIMEDES     S000000000000000000000000000000002447010
03487V025579517PAREDES        VIVAS          HECTOR         ENRIQUE        S000000000000000000000000000000002483713
03487V026364208BURGUILLOS     NUNEZ          ANTHONY        RAYNIER        S000000000000000000000000000000002447010
03487V019759809MESA           MEZA           BAUDILIO       ANTONIO        S000000000000000000000000000000002447010
03487V026479411PARABABIRE     MENDOZA        JESUS          NEPTALI        S000000000000000000000000000000002447010
03487V026649398PICO           GIL            MIGUEL         ANGEL          S000000000000000000000000000000002447010
03487V023412295MARQUEZ        MONTILLA       RAFAEL         ANTONIO        S000000000000000000000000000000002447010
03487V023814045ORTIZ          RANGEL         DAYANA         SAIRETH        S000000000000000000000000000000002447010
03487V024420894SOJO           LIRA           KEILYN         AUDIMAR        S000000000000000000000000000000002447010
03487V024305312MONTES         LUQUEZ         MAICKER        JESUS          S000000000000000000000000000000002447010
03487V013571912SANZONETTI     GONZALEZ       CARLOS         ED             S000000000000000000000000000000003029639
03487V025809786SANCHEZ        CONTRERAS      ANTONY         DAVID          S000000000000000000000000000000002447010
03487V026368027GONZALEZ       HIDALGO        LIZ            ALEJANDRA      S000000000000000000000000000000002447010
03487V024333312VILORIA        GARCIA         JOSE           DANIEL         S000000000000000000000000000000002447010
03487V016582437GAMBOA         LIRA           JOSE           ELEAZAR        S000000000000000000000000000000002735860
03487V007990762RAMOS          RODRIGUEZ      EDWIN          RAFAEL         S000000000000000000000000000000004194023
03487V023432064ESCALONA       CARVAJAL       ENDERSON       JOSE           S000000000000000000000000000000002447010
03487V026619999TORREZ         LOPEZ          PEDRO          ALEXANDER      S000000000000000000000000000000002447010
03487V023627081RAMIREZ        VILORIA        ENRIQUE        NEPTALI        S000000000000000000000000000000002447010
03487V021195613PACHECO        ADRIAN         MARIANA        YOLEISY        S000000000000000000000000000000002447010
03487V025618877CHAPARRO       SOSA           JOSE           MIGUEL         S000000000000000000000000000000002447010
03487V009236696PARRA          MORA           CESAR          AUGUSTO        S000000000000000000000000000000004194023
03487V026034211ROJAS          VELASQUEZ      SAMUEL         ALEJANDRO      S000000000000000000000000000000002447010
03487V027041771GUEVARA        PEREZ          JOSE           MANUEL         S000000000000000000000000000000002447010
03487V025090306ZAPATA         ZAMBRANO       JOHNAIKER      ENRIQUE        S000000000000000000000000000000002447010
03487V027048831GARCIA         SOSA           JOLIFER        NAZARET        S000000000000000000000000000000002447010
03487V024873685RONDON         CORDOVA        ELIEL          JESUS          S000000000000000000000000000000002447010
03487V008976519SALGADO        MARCELLA       HECTOR         JOSE           S000000000000000000000000000000004260273
03487V009432203PACHECO        AGUILAR        VICENTE        RAMON          S000000000000000000000000000000004194023
03487V023867039GARCIA         GONZALEZ       JACOBO         JOSE           S000000000000000000000000000000002447010
03487V025662055MARCHENA       ARCIA          AARON          ALEJANDRO      S000000000000000000000000000000002447010
03487V025531695TORRES         MORENO         ALEJANDRO      ALI            S000000000000000000000000000000002447010
03487V026881690BASTIDAS       DAVID          YULIANNY       ELIMAR         S000000000000000000000000000000002447010
03487V026267542GARCIA         SAAB           RAINERY        YUMARDY        S000000000000000000000000000000002447010
03487V025237545GARCIA         DUGARTE        MELISMEL       DEL            S000000000000000000000000000000002447010
03487V025169992PINTO          PEREZ          BENJAMIN       ENRIQUE        S000000000000000000000000000000002447010
03487V026886832FIGUEREDO      MARQUEZ        YERALDY        ANGELICA       S000000000000000000000000000000002447010
03487V020931794PULGAR         GARCIA         JUAN           CARLOS         S000000000000000000000000000000002447010
03487V007993988SABALA         TORREALBA      WILMER         AMADO          S000000000000000000000000000000004260273
03487V021201476GARCIA         CONTRERAS      FREDDY         ALEJANDRO      S000000000000000000000000000000002447010
03487V026661988ALFONZO        MONZON         JOHANGEL       MIGUEL         S000000000000000000000000000000002447010
03487V027448719VIZCAINO       SAN            MARTIN         MARIA          S000000000000000000000000000000002447010
